{
    "_format": "hh-sol-artifact-1",
    "contractName": "IKnewThat",
    "sourceName": "contracts/IKnewThat.sol",
    "abi": [
        {
            "inputs": [],
            "stateMutability": "nonpayable",
            "type": "constructor"
        },
        {
            "inputs": [
                {
                    "internalType": "uint256",
                    "name": "",
                    "type": "uint256"
                }
            ],
            "name": "claimIdToCommitment",
            "outputs": [
                {
                    "internalType": "bytes32",
                    "name": "",
                    "type": "bytes32"
                }
            ],
            "stateMutability": "view",
            "type": "function"
        },
        {
            "inputs": [
                {
                    "internalType": "bytes32",
                    "name": "",
                    "type": "bytes32"
                }
            ],
            "name": "claims",
            "outputs": [
                {
                    "internalType": "uint256",
                    "name": "id",
                    "type": "uint256"
                },
                {
                    "internalType": "address",
                    "name": "claimant",
                    "type": "address"
                },
                {
                    "internalType": "uint256",
                    "name": "publishTime",
                    "type": "uint256"
                },
                {
                    "internalType": "uint256",
                    "name": "revealTime",
                    "type": "uint256"
                },
                {
                    "internalType": "string",
                    "name": "dataLoc",
                    "type": "string"
                },
                {
                    "internalType": "uint256",
                    "name": "nonce",
                    "type": "uint256"
                }
            ],
            "stateMutability": "view",
            "type": "function"
        },
        {
            "inputs": [
                {
                    "internalType": "bytes32",
                    "name": "commitment",
                    "type": "bytes32"
                }
            ],
            "name": "commit",
            "outputs": [],
            "stateMutability": "nonpayable",
            "type": "function"
        },
        {
            "inputs": [
                {
                    "internalType": "bytes32",
                    "name": "commitment",
                    "type": "bytes32"
                }
            ],
            "name": "getClaim",
            "outputs": [
                {
                    "components": [
                        {
                            "internalType": "uint256",
                            "name": "id",
                            "type": "uint256"
                        },
                        {
                            "internalType": "address",
                            "name": "claimant",
                            "type": "address"
                        },
                        {
                            "internalType": "uint256",
                            "name": "publishTime",
                            "type": "uint256"
                        },
                        {
                            "internalType": "uint256",
                            "name": "revealTime",
                            "type": "uint256"
                        },
                        {
                            "internalType": "string",
                            "name": "dataLoc",
                            "type": "string"
                        },
                        {
                            "internalType": "uint256",
                            "name": "nonce",
                            "type": "uint256"
                        }
                    ],
                    "internalType": "struct IKnewThat.Claim",
                    "name": "",
                    "type": "tuple"
                }
            ],
            "stateMutability": "view",
            "type": "function"
        },
        {
            "inputs": [
                {
                    "internalType": "uint256",
                    "name": "claimId",
                    "type": "uint256"
                }
            ],
            "name": "getClaimCommitmentFromId",
            "outputs": [
                {
                    "internalType": "bytes32",
                    "name": "",
                    "type": "bytes32"
                }
            ],
            "stateMutability": "view",
            "type": "function"
        },
        {
            "inputs": [
                {
                    "internalType": "bytes32",
                    "name": "commitment",
                    "type": "bytes32"
                },
                {
                    "internalType": "string",
                    "name": "dataLoc",
                    "type": "string"
                },
                {
                    "internalType": "uint256",
                    "name": "nonce",
                    "type": "uint256"
                }
            ],
            "name": "reveal",
            "outputs": [],
            "stateMutability": "nonpayable",
            "type": "function"
        }
    ],
    "bytecode": "0x608060405234801561001057600080fd5b506110cf806100206000396000f3fe608060405234801561001057600080fd5b50600436106100625760003560e01c806346fe2620146100675780635495b70414610097578063c9100bcb146100c7578063ebb5e4aa146100f7578063eff0f59214610113578063f14fcbc814610148575b600080fd5b610081600480360381019061007c91906106c2565b610164565b60405161008e9190610708565b60405180910390f35b6100b160048036038101906100ac91906106c2565b610181565b6040516100be9190610708565b60405180910390f35b6100e160048036038101906100dc919061074f565b610199565b6040516100ee91906108e5565b60405180910390f35b610111600480360381019061010c9190610a3c565b6102d6565b005b61012d6004803603810190610128919061074f565b610414565b60405161013f96959493929190610b13565b60405180910390f35b610162600480360381019061015d919061074f565b6104f8565b005b600060026000838152602001908152602001600020549050919050565b60026020528060005260406000206000915090505481565b6101a161062c565b600160008381526020019081526020016000206040518060c0016040529081600082015481526020016001820160009054906101000a900473ffffffffffffffffffffffffffffffffffffffff1673ffffffffffffffffffffffffffffffffffffffff1673ffffffffffffffffffffffffffffffffffffffff168152602001600282015481526020016003820154815260200160048201805461024390610baa565b80601f016020809104026020016040519081016040528092919081815260200182805461026f90610baa565b80156102bc5780601f10610291576101008083540402835291602001916102bc565b820191906000526020600020905b81548152906001019060200180831161029f57829003601f168201915b505050505081526020016005820154815250509050919050565b6000600160008581526020019081526020016000209050600073ffffffffffffffffffffffffffffffffffffffff168160010160009054906101000a900473ffffffffffffffffffffffffffffffffffffffff1673ffffffffffffffffffffffffffffffffffffffff1603610380576040517f08c379a000000000000000000000000000000000000000000000000000000000815260040161037790610c27565b60405180910390fd5b8282604051602001610393929190610ca4565b6040516020818303038152906040528051906020012084146103ea576040517f08c379a00000000000000000000000000000000000000000000000000000000081526004016103e190610d18565b60405180910390fd5b428160030181905550828160040190816104049190610ee4565b5081816005018190555050505050565b60016020528060005260406000206000915090508060000154908060010160009054906101000a900473ffffffffffffffffffffffffffffffffffffffff169080600201549080600301549080600401805461046f90610baa565b80601f016020809104026020016040519081016040528092919081815260200182805461049b90610baa565b80156104e85780601f106104bd576101008083540402835291602001916104e8565b820191906000526020600020905b8154815290600101906020018083116104cb57829003601f168201915b5050505050908060050154905086565b6000600160008381526020019081526020016000209050600073ffffffffffffffffffffffffffffffffffffffff168160010160009054906101000a900473ffffffffffffffffffffffffffffffffffffffff1673ffffffffffffffffffffffffffffffffffffffff16146105a2576040517f08c379a000000000000000000000000000000000000000000000000000000000815260040161059990611002565b60405180910390fd5b6000808154809291906105b490611051565b91905055816000018190555081600260008360000154815260200190815260200160002081905550338160010160006101000a81548173ffffffffffffffffffffffffffffffffffffffff021916908373ffffffffffffffffffffffffffffffffffffffff1602179055504281600201819055505050565b6040518060c0016040528060008152602001600073ffffffffffffffffffffffffffffffffffffffff168152602001600081526020016000815260200160608152602001600081525090565b6000604051905090565b600080fd5b600080fd5b6000819050919050565b61069f8161068c565b81146106aa57600080fd5b50565b6000813590506106bc81610696565b92915050565b6000602082840312156106d8576106d7610682565b5b60006106e6848285016106ad565b91505092915050565b6000819050919050565b610702816106ef565b82525050565b600060208201905061071d60008301846106f9565b92915050565b61072c816106ef565b811461073757600080fd5b50565b60008135905061074981610723565b92915050565b60006020828403121561076557610764610682565b5b60006107738482850161073a565b91505092915050565b6107858161068c565b82525050565b600073ffffffffffffffffffffffffffffffffffffffff82169050919050565b60006107b68261078b565b9050919050565b6107c6816107ab565b82525050565b600081519050919050565b600082825260208201905092915050565b60005b838110156108065780820151818401526020810190506107eb565b60008484015250505050565b6000601f19601f8301169050919050565b600061082e826107cc565b61083881856107d7565b93506108488185602086016107e8565b61085181610812565b840191505092915050565b600060c083016000830151610874600086018261077c565b50602083015161088760208601826107bd565b50604083015161089a604086018261077c565b5060608301516108ad606086018261077c565b50608083015184820360808601526108c58282610823565b91505060a08301516108da60a086018261077c565b508091505092915050565b600060208201905081810360008301526108ff818461085c565b905092915050565b600080fd5b600080fd5b7f4e487b7100000000000000000000000000000000000000000000000000000000600052604160045260246000fd5b61094982610812565b810181811067ffffffffffffffff8211171561096857610967610911565b5b80604052505050565b600061097b610678565b90506109878282610940565b919050565b600067ffffffffffffffff8211156109a7576109a6610911565b5b6109b082610812565b9050602081019050919050565b82818337600083830152505050565b60006109df6109da8461098c565b610971565b9050828152602081018484840111156109fb576109fa61090c565b5b610a068482856109bd565b509392505050565b600082601f830112610a2357610a22610907565b5b8135610a338482602086016109cc565b91505092915050565b600080600060608486031215610a5557610a54610682565b5b6000610a638682870161073a565b935050602084013567ffffffffffffffff811115610a8457610a83610687565b5b610a9086828701610a0e565b9250506040610aa1868287016106ad565b9150509250925092565b610ab48161068c565b82525050565b610ac3816107ab565b82525050565b600082825260208201905092915050565b6000610ae5826107cc565b610aef8185610ac9565b9350610aff8185602086016107e8565b610b0881610812565b840191505092915050565b600060c082019050610b286000830189610aab565b610b356020830188610aba565b610b426040830187610aab565b610b4f6060830186610aab565b8181036080830152610b618185610ada565b9050610b7060a0830184610aab565b979650505050505050565b7f4e487b7100000000000000000000000000000000000000000000000000000000600052602260045260246000fd5b60006002820490506001821680610bc257607f821691505b602082108103610bd557610bd4610b7b565b5b50919050565b7f436c61696d20646f6573206e6f74206578697374000000000000000000000000600082015250565b6000610c11601483610ac9565b9150610c1c82610bdb565b602082019050919050565b60006020820190508181036000830152610c4081610c04565b9050919050565b600081905092915050565b6000610c5d826107cc565b610c678185610c47565b9350610c778185602086016107e8565b80840191505092915050565b6000819050919050565b610c9e610c998261068c565b610c83565b82525050565b6000610cb08285610c52565b9150610cbc8284610c8d565b6020820191508190509392505050565b7f4861736820646f6573206e6f74206d6174636820636f6d6d69746d656e740000600082015250565b6000610d02601e83610ac9565b9150610d0d82610ccc565b602082019050919050565b60006020820190508181036000830152610d3181610cf5565b9050919050565b60008190508160005260206000209050919050565b60006020601f8301049050919050565b600082821b905092915050565b600060088302610d9a7fffffffffffffffffffffffffffffffffffffffffffffffffffffffffffffffff82610d5d565b610da48683610d5d565b95508019841693508086168417925050509392505050565b6000819050919050565b6000610de1610ddc610dd78461068c565b610dbc565b61068c565b9050919050565b6000819050919050565b610dfb83610dc6565b610e0f610e0782610de8565b848454610d6a565b825550505050565b600090565b610e24610e17565b610e2f818484610df2565b505050565b5b81811015610e5357610e48600082610e1c565b600181019050610e35565b5050565b601f821115610e9857610e6981610d38565b610e7284610d4d565b81016020851015610e81578190505b610e95610e8d85610d4d565b830182610e34565b50505b505050565b600082821c905092915050565b6000610ebb60001984600802610e9d565b1980831691505092915050565b6000610ed48383610eaa565b9150826002028217905092915050565b610eed826107cc565b67ffffffffffffffff811115610f0657610f05610911565b5b610f108254610baa565b610f1b828285610e57565b600060209050601f831160018114610f4e5760008415610f3c578287015190505b610f468582610ec8565b865550610fae565b601f198416610f5c86610d38565b60005b82811015610f8457848901518255600182019150602085019450602081019050610f5f565b86831015610fa15784890151610f9d601f891682610eaa565b8355505b6001600288020188555050505b505050505050565b7f436c61696d20616c726561647920657869737473000000000000000000000000600082015250565b6000610fec601483610ac9565b9150610ff782610fb6565b602082019050919050565b6000602082019050818103600083015261101b81610fdf565b9050919050565b7f4e487b7100000000000000000000000000000000000000000000000000000000600052601160045260246000fd5b600061105c8261068c565b91507fffffffffffffffffffffffffffffffffffffffffffffffffffffffffffffffff820361108e5761108d611022565b5b60018201905091905056fea264697066735822122060620c7d88408ea9427fa4e2097a2a6c7985d8d3bd3337ef8bca95fcb216b9e764736f6c63430008110033",
    "linkReferences": {},
    "deployedLinkReferences": {}
}